{
  "_format": "hh-sol-artifact-1",
  "contractName": "NFT",
  "sourceName": "contracts/NFT.sol",
  "abi": [
    {
      "inputs": [],
      "stateMutability": "nonpayable",
      "type": "constructor"
    },
    {
      "anonymous": false,
      "inputs": [
        {
          "indexed": true,
          "internalType": "address",
          "name": "owner",
          "type": "address"
        },
        {
          "indexed": true,
          "internalType": "address",
          "name": "approved",
          "type": "address"
        },
        {
          "indexed": true,
          "internalType": "uint256",
          "name": "tokenId",
          "type": "uint256"
        }
      ],
      "name": "Approval",
      "type": "event"
    },
    {
      "anonymous": false,
      "inputs": [
        {
          "indexed": true,
          "internalType": "address",
          "name": "owner",
          "type": "address"
        },
        {
          "indexed": true,
          "internalType": "address",
          "name": "operator",
          "type": "address"
        },
        {
          "indexed": false,
          "internalType": "bool",
          "name": "approved",
          "type": "bool"
        }
      ],
      "name": "ApprovalForAll",
      "type": "event"
    },
    {
      "anonymous": false,
      "inputs": [
        {
          "indexed": true,
          "internalType": "address",
          "name": "previousOwner",
          "type": "address"
        },
        {
          "indexed": true,
          "internalType": "address",
          "name": "newOwner",
          "type": "address"
        }
      ],
      "name": "OwnershipTransferred",
      "type": "event"
    },
    {
      "anonymous": false,
      "inputs": [
        {
          "indexed": true,
          "internalType": "address",
          "name": "from",
          "type": "address"
        },
        {
          "indexed": true,
          "internalType": "address",
          "name": "to",
          "type": "address"
        },
        {
          "indexed": true,
          "internalType": "uint256",
          "name": "tokenId",
          "type": "uint256"
        }
      ],
      "name": "Transfer",
      "type": "event"
    },
    {
      "inputs": [
        {
          "internalType": "address",
          "name": "to",
          "type": "address"
        },
        {
          "internalType": "uint256",
          "name": "tokenId",
          "type": "uint256"
        }
      ],
      "name": "approve",
      "outputs": [],
      "stateMutability": "nonpayable",
      "type": "function"
    },
    {
      "inputs": [
        {
          "internalType": "address",
          "name": "owner",
          "type": "address"
        }
      ],
      "name": "balanceOf",
      "outputs": [
        {
          "internalType": "uint256",
          "name": "",
          "type": "uint256"
        }
      ],
      "stateMutability": "view",
      "type": "function"
    },
    {
      "inputs": [
        {
          "internalType": "uint256",
          "name": "tokenId",
          "type": "uint256"
        }
      ],
      "name": "burn",
      "outputs": [],
      "stateMutability": "nonpayable",
      "type": "function"
    },
    {
      "inputs": [
        {
          "internalType": "uint256",
          "name": "tokenId",
          "type": "uint256"
        }
      ],
      "name": "getApproved",
      "outputs": [
        {
          "internalType": "address",
          "name": "",
          "type": "address"
        }
      ],
      "stateMutability": "view",
      "type": "function"
    },
    {
      "inputs": [
        {
          "internalType": "address",
          "name": "owner",
          "type": "address"
        },
        {
          "internalType": "address",
          "name": "operator",
          "type": "address"
        }
      ],
      "name": "isApprovedForAll",
      "outputs": [
        {
          "internalType": "bool",
          "name": "",
          "type": "bool"
        }
      ],
      "stateMutability": "view",
      "type": "function"
    },
    {
      "inputs": [],
      "name": "name",
      "outputs": [
        {
          "internalType": "string",
          "name": "",
          "type": "string"
        }
      ],
      "stateMutability": "view",
      "type": "function"
    },
    {
      "inputs": [],
      "name": "owner",
      "outputs": [
        {
          "internalType": "address",
          "name": "",
          "type": "address"
        }
      ],
      "stateMutability": "view",
      "type": "function"
    },
    {
      "inputs": [
        {
          "internalType": "uint256",
          "name": "tokenId",
          "type": "uint256"
        }
      ],
      "name": "ownerOf",
      "outputs": [
        {
          "internalType": "address",
          "name": "",
          "type": "address"
        }
      ],
      "stateMutability": "view",
      "type": "function"
    },
    {
      "inputs": [],
      "name": "renounceOwnership",
      "outputs": [],
      "stateMutability": "nonpayable",
      "type": "function"
    },
    {
      "inputs": [
        {
          "internalType": "address",
          "name": "to",
          "type": "address"
        }
      ],
      "name": "safeMint",
      "outputs": [],
      "stateMutability": "nonpayable",
      "type": "function"
    },
    {
      "inputs": [
        {
          "internalType": "address",
          "name": "from",
          "type": "address"
        },
        {
          "internalType": "address",
          "name": "to",
          "type": "address"
        },
        {
          "internalType": "uint256",
          "name": "tokenId",
          "type": "uint256"
        }
      ],
      "name": "safeTransferFrom",
      "outputs": [],
      "stateMutability": "nonpayable",
      "type": "function"
    },
    {
      "inputs": [
        {
          "internalType": "address",
          "name": "from",
          "type": "address"
        },
        {
          "internalType": "address",
          "name": "to",
          "type": "address"
        },
        {
          "internalType": "uint256",
          "name": "tokenId",
          "type": "uint256"
        },
        {
          "internalType": "bytes",
          "name": "_data",
          "type": "bytes"
        }
      ],
      "name": "safeTransferFrom",
      "outputs": [],
      "stateMutability": "nonpayable",
      "type": "function"
    },
    {
      "inputs": [
        {
          "internalType": "address",
          "name": "operator",
          "type": "address"
        },
        {
          "internalType": "bool",
          "name": "approved",
          "type": "bool"
        }
      ],
      "name": "setApprovalForAll",
      "outputs": [],
      "stateMutability": "nonpayable",
      "type": "function"
    },
    {
      "inputs": [
        {
          "internalType": "bytes4",
          "name": "interfaceId",
          "type": "bytes4"
        }
      ],
      "name": "supportsInterface",
      "outputs": [
        {
          "internalType": "bool",
          "name": "",
          "type": "bool"
        }
      ],
      "stateMutability": "view",
      "type": "function"
    },
    {
      "inputs": [],
      "name": "symbol",
      "outputs": [
        {
          "internalType": "string",
          "name": "",
          "type": "string"
        }
      ],
      "stateMutability": "view",
      "type": "function"
    },
    {
      "inputs": [
        {
          "internalType": "uint256",
          "name": "tokenId",
          "type": "uint256"
        }
      ],
      "name": "tokenURI",
      "outputs": [
        {
          "internalType": "string",
          "name": "",
          "type": "string"
        }
      ],
      "stateMutability": "view",
      "type": "function"
    },
    {
      "inputs": [
        {
          "internalType": "address",
          "name": "from",
          "type": "address"
        },
        {
          "internalType": "address",
          "name": "to",
          "type": "address"
        },
        {
          "internalType": "uint256",
          "name": "tokenId",
          "type": "uint256"
        }
      ],
      "name": "transferFrom",
      "outputs": [],
      "stateMutability": "nonpayable",
      "type": "function"
    },
    {
      "inputs": [
        {
          "internalType": "address",
          "name": "newOwner",
          "type": "address"
        }
      ],
      "name": "transferOwnership",
      "outputs": [],
      "stateMutability": "nonpayable",
      "type": "function"
    }
  ],
  "bytecode": "0x60806040523480156200001157600080fd5b506040518060400160405280600381526020017f4e465400000000000000000000000000000000000000000000000000000000008152506040518060400160405280600381526020017f4e46540000000000000000000000000000000000000000000000000000000000815250816000908051906020019062000096929190620001a6565b508060019080519060200190620000af929190620001a6565b505050620000d2620000c6620000d860201b60201c565b620000e060201b60201c565b620002bb565b600033905090565b6000600760009054906101000a900473ffffffffffffffffffffffffffffffffffffffff16905081600760006101000a81548173ffffffffffffffffffffffffffffffffffffffff021916908373ffffffffffffffffffffffffffffffffffffffff1602179055508173ffffffffffffffffffffffffffffffffffffffff168173ffffffffffffffffffffffffffffffffffffffff167f8be0079c531659141344cd1fd0a4f28419497f9722a3daafe3b4186f6b6457e060405160405180910390a35050565b828054620001b49062000256565b90600052602060002090601f016020900481019282620001d8576000855562000224565b82601f10620001f357805160ff191683800117855562000224565b8280016001018555821562000224579182015b828111156200022357825182559160200191906001019062000206565b5b50905062000233919062000237565b5090565b5b808211156200025257600081600090555060010162000238565b5090565b600060028204905060018216806200026f57607f821691505b602082108114156200028657620002856200028c565b5b50919050565b7f4e487b7100000000000000000000000000000000000000000000000000000000600052602260045260246000fd5b6130b080620002cb6000396000f3fe608060405234801561001057600080fd5b50600436106101165760003560e01c806370a08231116100a2578063a22cb46511610071578063a22cb465146102cb578063b88d4fde146102e7578063c87b56dd14610303578063e985e9c514610333578063f2fde38b1461036357610116565b806370a0823114610255578063715018a6146102855780638da5cb5b1461028f57806395d89b41146102ad57610116565b806323b872dd116100e957806323b872dd146101b557806340d097c3146101d157806342842e0e146101ed57806342966c68146102095780636352211e1461022557610116565b806301ffc9a71461011b57806306fdde031461014b578063081812fc14610169578063095ea7b314610199575b600080fd5b61013560048036038101906101309190612057565b61037f565b60405161014291906124a3565b60405180910390f35b610153610461565b60405161016091906124be565b60405180910390f35b610183600480360381019061017e91906120a9565b6104f3565b604051610190919061243c565b60405180910390f35b6101b360048036038101906101ae919061201b565b610578565b005b6101cf60048036038101906101ca9190611f15565b610690565b005b6101eb60048036038101906101e69190611eb0565b6106f0565b005b61020760048036038101906102029190611f15565b610792565b005b610223600480360381019061021e91906120a9565b6107b2565b005b61023f600480360381019061023a91906120a9565b61080e565b60405161024c919061243c565b60405180910390f35b61026f600480360381019061026a9190611eb0565b6108c0565b60405161027c9190612720565b60405180910390f35b61028d610978565b005b610297610a00565b6040516102a4919061243c565b60405180910390f35b6102b5610a2a565b6040516102c291906124be565b60405180910390f35b6102e560048036038101906102e09190611fdf565b610abc565b005b61030160048036038101906102fc9190611f64565b610ad2565b005b61031d600480360381019061031891906120a9565b610b34565b60405161032a91906124be565b60405180910390f35b61034d60048036038101906103489190611ed9565b610b46565b60405161035a91906124a3565b60405180910390f35b61037d60048036038101906103789190611eb0565b610bda565b005b60007f80ac58cd000000000000000000000000000000000000000000000000000000007bffffffffffffffffffffffffffffffffffffffffffffffffffffffff1916827bffffffffffffffffffffffffffffffffffffffffffffffffffffffff1916148061044a57507f5b5e139f000000000000000000000000000000000000000000000000000000007bffffffffffffffffffffffffffffffffffffffffffffffffffffffff1916827bffffffffffffffffffffffffffffffffffffffffffffffffffffffff1916145b8061045a575061045982610cd2565b5b9050919050565b60606000805461047090612945565b80601f016020809104026020016040519081016040528092919081815260200182805461049c90612945565b80156104e95780601f106104be576101008083540402835291602001916104e9565b820191906000526020600020905b8154815290600101906020018083116104cc57829003601f168201915b5050505050905090565b60006104fe82610d3c565b61053d576040517f08c379a000000000000000000000000000000000000000000000000000000000815260040161053490612640565b60405180910390fd5b6004600083815260200190815260200160002060009054906101000a900473ffffffffffffffffffffffffffffffffffffffff169050919050565b60006105838261080e565b90508073ffffffffffffffffffffffffffffffffffffffff168373ffffffffffffffffffffffffffffffffffffffff1614156105f4576040517f08c379a00000000000000000000000000000000000000000000000000000000081526004016105eb906126c0565b60405180910390fd5b8073ffffffffffffffffffffffffffffffffffffffff16610613610da8565b73ffffffffffffffffffffffffffffffffffffffff16148061064257506106418161063c610da8565b610b46565b5b610681576040517f08c379a0000000000000000000000000000000000000000000000000000000008152600401610678906125a0565b60405180910390fd5b61068b8383610db0565b505050565b6106a161069b610da8565b82610e69565b6106e0576040517f08c379a00000000000000000000000000000000000000000000000000000000081526004016106d7906126e0565b60405180910390fd5b6106eb838383610f47565b505050565b6106f8610da8565b73ffffffffffffffffffffffffffffffffffffffff16610716610a00565b73ffffffffffffffffffffffffffffffffffffffff161461076c576040517f08c379a000000000000000000000000000000000000000000000000000000000815260040161076390612660565b60405180910390fd5b600061077860086111a3565b905061078460086111b1565b61078e82826111c7565b5050565b6107ad83838360405180602001604052806000815250610ad2565b505050565b6107c36107bd610da8565b82610e69565b610802576040517f08c379a00000000000000000000000000000000000000000000000000000000081526004016107f990612700565b60405180910390fd5b61080b816111e5565b50565b6000806002600084815260200190815260200160002060009054906101000a900473ffffffffffffffffffffffffffffffffffffffff169050600073ffffffffffffffffffffffffffffffffffffffff168173ffffffffffffffffffffffffffffffffffffffff1614156108b7576040517f08c379a00000000000000000000000000000000000000000000000000000000081526004016108ae906125e0565b60405180910390fd5b80915050919050565b60008073ffffffffffffffffffffffffffffffffffffffff168273ffffffffffffffffffffffffffffffffffffffff161415610931576040517f08c379a0000000000000000000000000000000000000000000000000000000008152600401610928906125c0565b60405180910390fd5b600360008373ffffffffffffffffffffffffffffffffffffffff1673ffffffffffffffffffffffffffffffffffffffff168152602001908152602001600020549050919050565b610980610da8565b73ffffffffffffffffffffffffffffffffffffffff1661099e610a00565b73ffffffffffffffffffffffffffffffffffffffff16146109f4576040517f08c379a00000000000000000000000000000000000000000000000000000000081526004016109eb90612660565b60405180910390fd5b6109fe60006111f1565b565b6000600760009054906101000a900473ffffffffffffffffffffffffffffffffffffffff16905090565b606060018054610a3990612945565b80601f0160208091040260200160405190810160405280929190818152602001828054610a6590612945565b8015610ab25780601f10610a8757610100808354040283529160200191610ab2565b820191906000526020600020905b815481529060010190602001808311610a9557829003601f168201915b5050505050905090565b610ace610ac7610da8565b83836112b7565b5050565b610ae3610add610da8565b83610e69565b610b22576040517f08c379a0000000000000000000000000000000000000000000000000000000008152600401610b19906126e0565b60405180910390fd5b610b2e84848484611424565b50505050565b6060610b3f82611480565b9050919050565b6000600560008473ffffffffffffffffffffffffffffffffffffffff1673ffffffffffffffffffffffffffffffffffffffff16815260200190815260200160002060008373ffffffffffffffffffffffffffffffffffffffff1673ffffffffffffffffffffffffffffffffffffffff16815260200190815260200160002060009054906101000a900460ff16905092915050565b610be2610da8565b73ffffffffffffffffffffffffffffffffffffffff16610c00610a00565b73ffffffffffffffffffffffffffffffffffffffff1614610c56576040517f08c379a0000000000000000000000000000000000000000000000000000000008152600401610c4d90612660565b60405180910390fd5b600073ffffffffffffffffffffffffffffffffffffffff168173ffffffffffffffffffffffffffffffffffffffff161415610cc6576040517f08c379a0000000000000000000000000000000000000000000000000000000008152600401610cbd90612500565b60405180910390fd5b610ccf816111f1565b50565b60007f01ffc9a7000000000000000000000000000000000000000000000000000000007bffffffffffffffffffffffffffffffffffffffffffffffffffffffff1916827bffffffffffffffffffffffffffffffffffffffffffffffffffffffff1916149050919050565b60008073ffffffffffffffffffffffffffffffffffffffff166002600084815260200190815260200160002060009054906101000a900473ffffffffffffffffffffffffffffffffffffffff1673ffffffffffffffffffffffffffffffffffffffff1614159050919050565b600033905090565b816004600083815260200190815260200160002060006101000a81548173ffffffffffffffffffffffffffffffffffffffff021916908373ffffffffffffffffffffffffffffffffffffffff160217905550808273ffffffffffffffffffffffffffffffffffffffff16610e238361080e565b73ffffffffffffffffffffffffffffffffffffffff167f8c5be1e5ebec7d5bd14f71427d1e84f3dd0314c0f7b2291e5b200ac8c7c3b92560405160405180910390a45050565b6000610e7482610d3c565b610eb3576040517f08c379a0000000000000000000000000000000000000000000000000000000008152600401610eaa90612580565b60405180910390fd5b6000610ebe8361080e565b90508073ffffffffffffffffffffffffffffffffffffffff168473ffffffffffffffffffffffffffffffffffffffff161480610f2d57508373ffffffffffffffffffffffffffffffffffffffff16610f15846104f3565b73ffffffffffffffffffffffffffffffffffffffff16145b80610f3e5750610f3d8185610b46565b5b91505092915050565b8273ffffffffffffffffffffffffffffffffffffffff16610f678261080e565b73ffffffffffffffffffffffffffffffffffffffff1614610fbd576040517f08c379a0000000000000000000000000000000000000000000000000000000008152600401610fb490612680565b60405180910390fd5b600073ffffffffffffffffffffffffffffffffffffffff168273ffffffffffffffffffffffffffffffffffffffff16141561102d576040517f08c379a000000000000000000000000000000000000000000000000000000000815260040161102490612540565b60405180910390fd5b6110388383836115d2565b611043600082610db0565b6001600360008573ffffffffffffffffffffffffffffffffffffffff1673ffffffffffffffffffffffffffffffffffffffff1681526020019081526020016000206000828254611093919061285b565b925050819055506001600360008473ffffffffffffffffffffffffffffffffffffffff1673ffffffffffffffffffffffffffffffffffffffff16815260200190815260200160002060008282546110ea91906127d4565b92505081905550816002600083815260200190815260200160002060006101000a81548173ffffffffffffffffffffffffffffffffffffffff021916908373ffffffffffffffffffffffffffffffffffffffff160217905550808273ffffffffffffffffffffffffffffffffffffffff168473ffffffffffffffffffffffffffffffffffffffff167fddf252ad1be2c89b69c2b068fc378daa952ba7f163c4a11628f55a4df523b3ef60405160405180910390a4505050565b600081600001549050919050565b6001816000016000828254019250508190555050565b6111e18282604051806020016040528060008152506115d7565b5050565b6111ee81611632565b50565b6000600760009054906101000a900473ffffffffffffffffffffffffffffffffffffffff16905081600760006101000a81548173ffffffffffffffffffffffffffffffffffffffff021916908373ffffffffffffffffffffffffffffffffffffffff1602179055508173ffffffffffffffffffffffffffffffffffffffff168173ffffffffffffffffffffffffffffffffffffffff167f8be0079c531659141344cd1fd0a4f28419497f9722a3daafe3b4186f6b6457e060405160405180910390a35050565b8173ffffffffffffffffffffffffffffffffffffffff168373ffffffffffffffffffffffffffffffffffffffff161415611326576040517f08c379a000000000000000000000000000000000000000000000000000000000815260040161131d90612560565b60405180910390fd5b80600560008573ffffffffffffffffffffffffffffffffffffffff1673ffffffffffffffffffffffffffffffffffffffff16815260200190815260200160002060008473ffffffffffffffffffffffffffffffffffffffff1673ffffffffffffffffffffffffffffffffffffffff16815260200190815260200160002060006101000a81548160ff0219169083151502179055508173ffffffffffffffffffffffffffffffffffffffff168373ffffffffffffffffffffffffffffffffffffffff167f17307eab39ab6107e8899845ad3d59bd9653f200f220920489ca2b5937696c318360405161141791906124a3565b60405180910390a3505050565b61142f848484610f47565b61143b84848484611685565b61147a576040517f08c379a0000000000000000000000000000000000000000000000000000000008152600401611471906124e0565b60405180910390fd5b50505050565b606061148b82610d3c565b6114ca576040517f08c379a00000000000000000000000000000000000000000000000000000000081526004016114c190612620565b60405180910390fd5b60006006600084815260200190815260200160002080546114ea90612945565b80601f016020809104026020016040519081016040528092919081815260200182805461151690612945565b80156115635780601f1061153857610100808354040283529160200191611563565b820191906000526020600020905b81548152906001019060200180831161154657829003601f168201915b50505050509050600061157461181c565b905060008151141561158a5781925050506115cd565b6000825111156115bf5780826040516020016115a7929190612418565b604051602081830303815290604052925050506115cd565b6115c88461183c565b925050505b919050565b505050565b6115e183836118e3565b6115ee6000848484611685565b61162d576040517f08c379a0000000000000000000000000000000000000000000000000000000008152600401611624906124e0565b60405180910390fd5b505050565b61163b81611ab1565b600060066000838152602001908152602001600020805461165b90612945565b905014611682576006600082815260200190815260200160002060006116819190611d82565b5b50565b60006116a68473ffffffffffffffffffffffffffffffffffffffff16611bc2565b1561180f578373ffffffffffffffffffffffffffffffffffffffff1663150b7a026116cf610da8565b8786866040518563ffffffff1660e01b81526004016116f19493929190612457565b602060405180830381600087803b15801561170b57600080fd5b505af192505050801561173c57506040513d601f19601f820116820180604052508101906117399190612080565b60015b6117bf573d806000811461176c576040519150601f19603f3d011682016040523d82523d6000602084013e611771565b606091505b506000815114156117b7576040517f08c379a00000000000000000000000000000000000000000000000000000000081526004016117ae906124e0565b60405180910390fd5b805181602001fd5b63150b7a0260e01b7bffffffffffffffffffffffffffffffffffffffffffffffffffffffff1916817bffffffffffffffffffffffffffffffffffffffffffffffffffffffff191614915050611814565b600190505b949350505050565b606060405180606001604052806039815260200161304260399139905090565b606061184782610d3c565b611886576040517f08c379a000000000000000000000000000000000000000000000000000000000815260040161187d906126a0565b60405180910390fd5b600061189061181c565b905060008151116118b057604051806020016040528060008152506118db565b806118ba84611bd5565b6040516020016118cb929190612418565b6040516020818303038152906040525b915050919050565b600073ffffffffffffffffffffffffffffffffffffffff168273ffffffffffffffffffffffffffffffffffffffff161415611953576040517f08c379a000000000000000000000000000000000000000000000000000000000815260040161194a90612600565b60405180910390fd5b61195c81610d3c565b1561199c576040517f08c379a000000000000000000000000000000000000000000000000000000000815260040161199390612520565b60405180910390fd5b6119a8600083836115d2565b6001600360008473ffffffffffffffffffffffffffffffffffffffff1673ffffffffffffffffffffffffffffffffffffffff16815260200190815260200160002060008282546119f891906127d4565b92505081905550816002600083815260200190815260200160002060006101000a81548173ffffffffffffffffffffffffffffffffffffffff021916908373ffffffffffffffffffffffffffffffffffffffff160217905550808273ffffffffffffffffffffffffffffffffffffffff16600073ffffffffffffffffffffffffffffffffffffffff167fddf252ad1be2c89b69c2b068fc378daa952ba7f163c4a11628f55a4df523b3ef60405160405180910390a45050565b6000611abc8261080e565b9050611aca816000846115d2565b611ad5600083610db0565b6001600360008373ffffffffffffffffffffffffffffffffffffffff1673ffffffffffffffffffffffffffffffffffffffff1681526020019081526020016000206000828254611b25919061285b565b925050819055506002600083815260200190815260200160002060006101000a81549073ffffffffffffffffffffffffffffffffffffffff021916905581600073ffffffffffffffffffffffffffffffffffffffff168273ffffffffffffffffffffffffffffffffffffffff167fddf252ad1be2c89b69c2b068fc378daa952ba7f163c4a11628f55a4df523b3ef60405160405180910390a45050565b600080823b905060008111915050919050565b60606000821415611c1d576040518060400160405280600181526020017f30000000000000000000000000000000000000000000000000000000000000008152509050611d7d565b600082905060005b60008214611c4f578080611c38906129a8565b915050600a82611c48919061282a565b9150611c25565b60008167ffffffffffffffff811115611c91577f4e487b7100000000000000000000000000000000000000000000000000000000600052604160045260246000fd5b6040519080825280601f01601f191660200182016040528015611cc35781602001600182028036833780820191505090505b5090505b60008514611d7657600182611cdc919061285b565b9150600a85611ceb91906129f1565b6030611cf791906127d4565b60f81b818381518110611d33577f4e487b7100000000000000000000000000000000000000000000000000000000600052603260045260246000fd5b60200101907effffffffffffffffffffffffffffffffffffffffffffffffffffffffffffff1916908160001a905350600a85611d6f919061282a565b9450611cc7565b8093505050505b919050565b508054611d8e90612945565b6000825580601f10611da05750611dbf565b601f016020900490600052602060002090810190611dbe9190611dc2565b5b50565b5b80821115611ddb576000816000905550600101611dc3565b5090565b6000611df2611ded84612760565b61273b565b905082815260208101848484011115611e0a57600080fd5b611e15848285612903565b509392505050565b600081359050611e2c81612fe5565b92915050565b600081359050611e4181612ffc565b92915050565b600081359050611e5681613013565b92915050565b600081519050611e6b81613013565b92915050565b600082601f830112611e8257600080fd5b8135611e92848260208601611ddf565b91505092915050565b600081359050611eaa8161302a565b92915050565b600060208284031215611ec257600080fd5b6000611ed084828501611e1d565b91505092915050565b60008060408385031215611eec57600080fd5b6000611efa85828601611e1d565b9250506020611f0b85828601611e1d565b9150509250929050565b600080600060608486031215611f2a57600080fd5b6000611f3886828701611e1d565b9350506020611f4986828701611e1d565b9250506040611f5a86828701611e9b565b9150509250925092565b60008060008060808587031215611f7a57600080fd5b6000611f8887828801611e1d565b9450506020611f9987828801611e1d565b9350506040611faa87828801611e9b565b925050606085013567ffffffffffffffff811115611fc757600080fd5b611fd387828801611e71565b91505092959194509250565b60008060408385031215611ff257600080fd5b600061200085828601611e1d565b925050602061201185828601611e32565b9150509250929050565b6000806040838503121561202e57600080fd5b600061203c85828601611e1d565b925050602061204d85828601611e9b565b9150509250929050565b60006020828403121561206957600080fd5b600061207784828501611e47565b91505092915050565b60006020828403121561209257600080fd5b60006120a084828501611e5c565b91505092915050565b6000602082840312156120bb57600080fd5b60006120c984828501611e9b565b91505092915050565b6120db8161288f565b82525050565b6120ea816128a1565b82525050565b60006120fb82612791565b61210581856127a7565b9350612115818560208601612912565b61211e81612ade565b840191505092915050565b60006121348261279c565b61213e81856127b8565b935061214e818560208601612912565b61215781612ade565b840191505092915050565b600061216d8261279c565b61217781856127c9565b9350612187818560208601612912565b80840191505092915050565b60006121a06032836127b8565b91506121ab82612aef565b604082019050919050565b60006121c36026836127b8565b91506121ce82612b3e565b604082019050919050565b60006121e6601c836127b8565b91506121f182612b8d565b602082019050919050565b60006122096024836127b8565b915061221482612bb6565b604082019050919050565b600061222c6019836127b8565b915061223782612c05565b602082019050919050565b600061224f602c836127b8565b915061225a82612c2e565b604082019050919050565b60006122726038836127b8565b915061227d82612c7d565b604082019050919050565b6000612295602a836127b8565b91506122a082612ccc565b604082019050919050565b60006122b86029836127b8565b91506122c382612d1b565b604082019050919050565b60006122db6020836127b8565b91506122e682612d6a565b602082019050919050565b60006122fe6031836127b8565b915061230982612d93565b604082019050919050565b6000612321602c836127b8565b915061232c82612de2565b604082019050919050565b60006123446020836127b8565b915061234f82612e31565b602082019050919050565b60006123676029836127b8565b915061237282612e5a565b604082019050919050565b600061238a602f836127b8565b915061239582612ea9565b604082019050919050565b60006123ad6021836127b8565b91506123b882612ef8565b604082019050919050565b60006123d06031836127b8565b91506123db82612f47565b604082019050919050565b60006123f36030836127b8565b91506123fe82612f96565b604082019050919050565b612412816128f9565b82525050565b60006124248285612162565b91506124308284612162565b91508190509392505050565b600060208201905061245160008301846120d2565b92915050565b600060808201905061246c60008301876120d2565b61247960208301866120d2565b6124866040830185612409565b818103606083015261249881846120f0565b905095945050505050565b60006020820190506124b860008301846120e1565b92915050565b600060208201905081810360008301526124d88184612129565b905092915050565b600060208201905081810360008301526124f981612193565b9050919050565b60006020820190508181036000830152612519816121b6565b9050919050565b60006020820190508181036000830152612539816121d9565b9050919050565b60006020820190508181036000830152612559816121fc565b9050919050565b600060208201905081810360008301526125798161221f565b9050919050565b6000602082019050818103600083015261259981612242565b9050919050565b600060208201905081810360008301526125b981612265565b9050919050565b600060208201905081810360008301526125d981612288565b9050919050565b600060208201905081810360008301526125f9816122ab565b9050919050565b60006020820190508181036000830152612619816122ce565b9050919050565b60006020820190508181036000830152612639816122f1565b9050919050565b6000602082019050818103600083015261265981612314565b9050919050565b6000602082019050818103600083015261267981612337565b9050919050565b600060208201905081810360008301526126998161235a565b9050919050565b600060208201905081810360008301526126b98161237d565b9050919050565b600060208201905081810360008301526126d9816123a0565b9050919050565b600060208201905081810360008301526126f9816123c3565b9050919050565b60006020820190508181036000830152612719816123e6565b9050919050565b60006020820190506127356000830184612409565b92915050565b6000612745612756565b90506127518282612977565b919050565b6000604051905090565b600067ffffffffffffffff82111561277b5761277a612aaf565b5b61278482612ade565b9050602081019050919050565b600081519050919050565b600081519050919050565b600082825260208201905092915050565b600082825260208201905092915050565b600081905092915050565b60006127df826128f9565b91506127ea836128f9565b9250827fffffffffffffffffffffffffffffffffffffffffffffffffffffffffffffffff0382111561281f5761281e612a22565b5b828201905092915050565b6000612835826128f9565b9150612840836128f9565b9250826128505761284f612a51565b5b828204905092915050565b6000612866826128f9565b9150612871836128f9565b92508282101561288457612883612a22565b5b828203905092915050565b600061289a826128d9565b9050919050565b60008115159050919050565b60007fffffffff0000000000000000000000000000000000000000000000000000000082169050919050565b600073ffffffffffffffffffffffffffffffffffffffff82169050919050565b6000819050919050565b82818337600083830152505050565b60005b83811015612930578082015181840152602081019050612915565b8381111561293f576000848401525b50505050565b6000600282049050600182168061295d57607f821691505b6020821081141561297157612970612a80565b5b50919050565b61298082612ade565b810181811067ffffffffffffffff8211171561299f5761299e612aaf565b5b80604052505050565b60006129b3826128f9565b91507fffffffffffffffffffffffffffffffffffffffffffffffffffffffffffffffff8214156129e6576129e5612a22565b5b600182019050919050565b60006129fc826128f9565b9150612a07836128f9565b925082612a1757612a16612a51565b5b828206905092915050565b7f4e487b7100000000000000000000000000000000000000000000000000000000600052601160045260246000fd5b7f4e487b7100000000000000000000000000000000000000000000000000000000600052601260045260246000fd5b7f4e487b7100000000000000000000000000000000000000000000000000000000600052602260045260246000fd5b7f4e487b7100000000000000000000000000000000000000000000000000000000600052604160045260246000fd5b6000601f19601f8301169050919050565b7f4552433732313a207472616e7366657220746f206e6f6e20455243373231526560008201527f63656976657220696d706c656d656e7465720000000000000000000000000000602082015250565b7f4f776e61626c653a206e6577206f776e657220697320746865207a65726f206160008201527f6464726573730000000000000000000000000000000000000000000000000000602082015250565b7f4552433732313a20746f6b656e20616c7265616479206d696e74656400000000600082015250565b7f4552433732313a207472616e7366657220746f20746865207a65726f2061646460008201527f7265737300000000000000000000000000000000000000000000000000000000602082015250565b7f4552433732313a20617070726f766520746f2063616c6c657200000000000000600082015250565b7f4552433732313a206f70657261746f7220717565727920666f72206e6f6e657860008201527f697374656e7420746f6b656e0000000000000000000000000000000000000000602082015250565b7f4552433732313a20617070726f76652063616c6c6572206973206e6f74206f7760008201527f6e6572206e6f7220617070726f76656420666f7220616c6c0000000000000000602082015250565b7f4552433732313a2062616c616e636520717565727920666f7220746865207a6560008201527f726f206164647265737300000000000000000000000000000000000000000000602082015250565b7f4552433732313a206f776e657220717565727920666f72206e6f6e657869737460008201527f656e7420746f6b656e0000000000000000000000000000000000000000000000602082015250565b7f4552433732313a206d696e7420746f20746865207a65726f2061646472657373600082015250565b7f45524337323155524953746f726167653a2055524920717565727920666f722060008201527f6e6f6e6578697374656e7420746f6b656e000000000000000000000000000000602082015250565b7f4552433732313a20617070726f76656420717565727920666f72206e6f6e657860008201527f697374656e7420746f6b656e0000000000000000000000000000000000000000602082015250565b7f4f776e61626c653a2063616c6c6572206973206e6f7420746865206f776e6572600082015250565b7f4552433732313a207472616e73666572206f6620746f6b656e2074686174206960008201527f73206e6f74206f776e0000000000000000000000000000000000000000000000602082015250565b7f4552433732314d657461646174613a2055524920717565727920666f72206e6f60008201527f6e6578697374656e7420746f6b656e0000000000000000000000000000000000602082015250565b7f4552433732313a20617070726f76616c20746f2063757272656e74206f776e6560008201527f7200000000000000000000000000000000000000000000000000000000000000602082015250565b7f4552433732313a207472616e736665722063616c6c6572206973206e6f74206f60008201527f776e6572206e6f7220617070726f766564000000000000000000000000000000602082015250565b7f4552433732314275726e61626c653a2063616c6c6572206973206e6f74206f7760008201527f6e6572206e6f7220617070726f76656400000000000000000000000000000000602082015250565b612fee8161288f565b8114612ff957600080fd5b50565b613005816128a1565b811461301057600080fd5b50565b61301c816128ad565b811461302757600080fd5b50565b613033816128f9565b811461303e57600080fd5b5056fe68747470733a2f2f6f70656e7365612d6372656174757265732d6170692e6865726f6b756170702e636f6d2f6170692f63726561747572652fa2646970667358221220bda68fd0809e643356418861c38841a21e63e74480bbce9c096bb82c04c4974964736f6c63430008040033",
  "linkReferences": {},
  "deployedLinkReferences": {}
}